:107000000C943C380C947A380C9459380C945938B8
:107010000C9459380C9459380C9459380C945938AC
:107020000C9459380C9459380C9459380C9459389C
:107030000C9459380C9459380C9459380C9459388C
:107040000C9459380C9459380C9459380C9459387C
:107050000C9459380C9459380C9459380C9459386C
:107060000C9459380C945938DC38DF3891399D39F3
:10707000BC39A239AB39B43911241FBECFEFD8E0E7
:10708000DEBFCDBF11E0A0E0B1E0E2E3F8E702C06F
:1070900005900D92AE33B107D9F722E0AEE3B1E02F
:1070A00001C01D92AF30B207E1F70E94C0390C94C5
:1070B000173C0C940038FC018281807E80618283C1
:1070C000339680E011928F5F8830E1F708958AE56A
:1070D00091E00E945B38F89410926900E89A7894E5
:1070E00081E00E94553B811104C080E091E00E9444
:1070F000B63A08951F920F920FB60F9211242F9354
:107100003F934F935F936F937F938F939F93AF932F
:10711000BF93EF93FF938AE591E00E949F3BE0913C
:107120006501F09166018AE591E00995FF91EF9183
:10713000BF91AF919F918F917F916F915F914F918F
:107140003F912F910F900FBE0F901F90189581E0E7
:1071500085BF15BE61E084EB90E00E94093C0C9471
:10716000000008951F93CF93DF932BE0FC01A4E070
:10717000B2E001900D922A95E1F780910702809389
:10718000790180917C0190917D01019690937D0120
:1071900080937C0140910802409302028091790122
:1071A00090E0FC01E55AF109E830F10508F0E4C08F
:1071B000EC5CF74C0C94FB3B0C940038DDC0842F46
:1071C00090E09C01220F331F820F931F8093750163
:1071D0004531B8F49927DC01AA0FBB1FA258BE4F56
:1071E00086E0E9E0F2E001900D928A95E1F7809166
:1071F0007A0190917B01069690937B0180937A01AE
:107200001AC04531C1F49927FC01EE0FFF1FE25867
:10721000FE4F8091090290910A02A0910B02808397
:107220009183A28380917A0190917B010396909340
:107230007B0180937A0180917A0190917B01803863
:10724000910508F499C020910302422F4695469576
:10725000469550E0FA01E25CFE4FC081D22FD77014
:107260008C2F90E00D2E02C0959587950A94E2F739
:1072700080FD82C010927B0110927A01F999FECFB5
:1072800080E8289F9001112483E0F9018093570042
:10729000E89507B600FCFDCF1092760110926701C9
:1072A00070E060E011E0F901E70FF11DA62FB0E0FA
:1072B000AA0FBB1FA258BE4F8D919C910C01109339
:1072C0005700E89511247E5F6F5F772364F7609322
:1072D00067017093760185E0F90180935700E89586
:1072E00007B600FCFDCF81E180935700E895FA01D5
:1072F000E25CFE4F21E030E0C90102C0880F991F17
:10730000DA95E2F78C2B8083809168018F5F809300
:1073100068019091780189132FC081E08093690101
:107320002BC08091090280937801909168018913A4
:1073300023C081E0809369011FC08091090280937E
:1073400003021AC084EB90E00E94013C8130A1F45A
:107350008093690111C084EB90E00E94013C813070
:1073600059F40E94A73808C084EB90E00E94013CC9
:10737000813011F40E94A738DF91CF911F910895B9
:10738000F89481E085BF82E085BFEEE3F1E08AE515
:1073900091E01192E817F907E1F78CED80937801FD
:1073A000109268011092030210927B0110927A01F0
:1073B00010927701109275011092690184E092E0B9
:1073C0000E945B38789482EB98E3909366018093F7
:1073D00065010E948C3A80916901813011F40E940C
:1073E000A73884E00E947D3A2FEF81EE94E021508F
:1073F00080409040E1F700C0000080E00E947D3AAC
:107400002FEF81EE94E0215080409040E1F700C0E2
:107410000000E1CFBF92CF92DF92EF92FF920F93E5
:107420001F93CF93DF93B42EC82ECC0CC80E689454
:10743000DD24D1F8DC0CC0E0D0E0EE24E394F12CA4
:10744000062F10E09C2F9C0D9C30E8F48AE20E94ED
:10745000EB3A8D2D0E94103B97010C2E02C0220F9B
:10746000331F0A94E2F720233123C9010C2E02C0F6
:10747000959587950A94E2F7B89E802D11240E9475
:10748000103B0E94223B2196D394C330D105D1F604
:10749000DF91CF911F910F91FF90EF90DF90CF90F0
:1074A000BF900895CF930E94E53A8AE20E94EB3A9A
:1074B00080E80E94103B80E80E94103B82E00E941E
:1074C000103BC0E180E00E94103BC150D9F78FEF24
:1074D0000E94103B80E00E94103B8AEA0E94103B11
:1074E0008AEA0E94103B8AEA0E94103B8AEA0E94C4
:1074F000103B0E94223BCF910895CF93DF93D82F6A
:10750000C0E040E26D2F8C2F0E940A3ACF5FC4305A
:10751000C1F7DF91CF910895F8941092600014B8EC
:1075200017B81AB815B818B81BB80E94A13A0E942B
:10753000523A0E946738789481E291E00E94B63A0C
:107540000895519A509881E090E09093C5008093FF
:10755000C4001092C000E1ECF0E08081886080837C
:10756000E2ECF0E08081866080830895CF93DF9322
:10757000DC018C918823F1F0E0ECF0E0808185FF64
:10758000FDCF8AE08093C6009C91992399F01196D3
:1075900020E030E0E0ECF0E0C6ECD0E0808185FF58
:1075A000FDCF98832F5F3F4F9D91992319F024368B
:1075B0003105A1F7E0ECF0E0808185FFFDCF8AE0A6
:1075C0008093C600DF91CF9108953C9A3D9A88E45C
:1075D0008093B8000895ECEBF0E0108294EA908379
:1075E00090819923ECF79091B900987F9830A1F49D
:1075F0008093BB0084E88093BC00ECEBF0E08081DA
:107600008823ECF79091B900987F983139F081E0A8
:10761000903429F480E0089581E0089580E0089591
:107620008093BB0084E88093BC00ECEBF0E08081A9
:107630008823ECF79091B900987F81E0983209F4A3
:1076400080E0089584E98093BC0008958EBD0DB458
:1076500007FEFDCF8EB50895CF93DF93D82FC62FA9
:107660002A9882E00E94263B8D2F0E94263B8C2F79
:107670000E94263B2A9ADF91CF910895CF93C82F7D
:107680002A9883E00E94263B8C2F0E94263B8FEF96
:107690000E94263B2A9ACF9108952A980E94263B61
:1076A0008FEF0E94263B2A9A0895CF93C82F229AE3
:1076B000259A239A2498529881E58CBD1DBC2A985E
:1076C00080EC0E94263B2A9A83E08A95F1F700001D
:1076D0002A9880EC0E94263B2A9A2A9882E00E94EF
:1076E000263B88E20E94263B82E00E94263B80E9FE
:1076F0000E94263B8C2F0E94263B83E00E94263B63
:107700002A9A8AE20E943E3B8C1316C060E08CE00D
:107710000E942C3B60E08DE00E942C3B60E680E6FE
:107720000E942C3B60E680E70E942C3B60E08FE0EB
:107730000E942C3B81E001C080E0CF910895FF9230
:107740000F931F93CF93DF938C0180EB0E944D3BEF
:10775000F82E8074F6FC05C0FF200CF046C084E9CA
:1077600001C080E92A980E94263B8FEF0E94263BA9
:1077700098E0899FE0011124F801D183C0838FEF45
:107780000E94263B829586958770C82BF801D1838D
:10779000C0838FEF0E94263B8FEF0E94263B8FEF26
:1077A0000E94263B8F70282F220FF8019281917E34
:1077B000F3FAFF24F0F8922BF0FA90F992838823E1
:1077C00071F0E80123960C5F1F4F8150080F111DC7
:1077D0008FEF0E94263B8993C017D107C9F72A9AD9
:1077E00080EB0E944D3B87708F5FDF91CF911F919F
:1077F0000F91FF900895EE0FFF1F0590F491E02D7B
:107800000994F999FECF92BD81BDF89A992780B568
:107810000895262FF999FECF1FBA92BD81BD20BDD4
:107820000FB6F894FA9AF99A0FBE01960895F89453
:02783000FFCF88
:107832004552524F523A2043414E20636F756C6459
:10784200206E6F7420696E697469616C697A652E45
:107852000043656C6C20626F6F746C6F616465725B
:0E78620020696E697469616C697A65642E0034
:040000030000700089
:00000001FF
